{
  "_format": "hh-sol-artifact-1",
  "contractName": "Calculator",
  "sourceName": "contracts/Calculator.sol",
  "abi": [
    {
      "inputs": [],
      "stateMutability": "nonpayable",
      "type": "constructor"
    },
    {
      "inputs": [
        {
          "internalType": "uint256",
          "name": "_num1",
          "type": "uint256"
        },
        {
          "internalType": "uint256",
          "name": "_num2",
          "type": "uint256"
        }
      ],
      "name": "add",
      "outputs": [
        {
          "internalType": "uint256",
          "name": "",
          "type": "uint256"
        }
      ],
      "stateMutability": "view",
      "type": "function"
    },
    {
      "inputs": [
        {
          "internalType": "uint256",
          "name": "_num1",
          "type": "uint256"
        },
        {
          "internalType": "uint256",
          "name": "_num2",
          "type": "uint256"
        },
        {
          "internalType": "uint256",
          "name": "precision",
          "type": "uint256"
        }
      ],
      "name": "divide",
      "outputs": [
        {
          "internalType": "uint256",
          "name": "",
          "type": "uint256"
        }
      ],
      "stateMutability": "view",
      "type": "function"
    },
    {
      "inputs": [
        {
          "internalType": "uint256",
          "name": "_num1",
          "type": "uint256"
        },
        {
          "internalType": "uint256",
          "name": "_num2",
          "type": "uint256"
        }
      ],
      "name": "multiply",
      "outputs": [
        {
          "internalType": "uint256",
          "name": "",
          "type": "uint256"
        }
      ],
      "stateMutability": "view",
      "type": "function"
    },
    {
      "inputs": [
        {
          "internalType": "uint256",
          "name": "_num1",
          "type": "uint256"
        },
        {
          "internalType": "uint256",
          "name": "_num2",
          "type": "uint256"
        }
      ],
      "name": "subtract",
      "outputs": [
        {
          "internalType": "uint256",
          "name": "",
          "type": "uint256"
        }
      ],
      "stateMutability": "view",
      "type": "function"
    }
  ],
  "bytecode": "0x608060405234801561001057600080fd5b506100596040518060400160405280601781526020017f4465706c6f79696e672043616c63756c61746f722e2e2e00000000000000000081525061005e60201b6102791760201c565b6101e1565b6100fa81604051602401610072919061015f565b6040516020818303038152906040527f41304fac000000000000000000000000000000000000000000000000000000007bffffffffffffffffffffffffffffffffffffffffffffffffffffffff19166020820180517bffffffffffffffffffffffffffffffffffffffffffffffffffffffff83818316178352505050506100fd60201b60201c565b50565b60008151905060006a636f6e736f6c652e6c6f679050602083016000808483855afa5050505050565b600061013182610181565b61013b818561018c565b935061014b81856020860161019d565b610154816101d0565b840191505092915050565b600060208201905081810360008301526101798184610126565b905092915050565b600081519050919050565b600082825260208201905092915050565b60005b838110156101bb5780820151818401526020810190506101a0565b838111156101ca576000848401525b50505050565b6000601f19601f8301169050919050565b610808806101f06000396000f3fe608060405234801561001057600080fd5b506004361061004c5760003560e01c8063165c4a16146100515780633ef5e44514610081578063410df91a146100b1578063771602f7146100e1575b600080fd5b61006b60048036038101906100669190610350565b610111565b6040516100789190610445565b60405180910390f35b61009b60048036038101906100969190610350565b610165565b6040516100a89190610445565b60405180910390f35b6100cb60048036038101906100c6919061038c565b6101b9565b6040516100d89190610445565b60405180910390f35b6100fb60048036038101906100f69190610350565b610225565b6040516101089190610445565b60405180910390f35b60006101516040518060400160405280600e81526020017f4d756c7469706c79696e672e2e2e000000000000000000000000000000000000815250610279565b818361015d9190610674565b905092915050565b60006101a56040518060400160405280600e81526020017f5375627472616374696e672e2e2e000000000000000000000000000000000000815250610279565b81836101b191906106ce565b905092915050565b60006101f96040518060400160405280600b81526020017f4469766964696e672e2e2e000000000000000000000000000000000000000000815250610279565b8282600a6102079190610556565b856102129190610674565b61021c91906104d2565b90509392505050565b60006102656040518060400160405280600981526020017f416464696e672e2e2e0000000000000000000000000000000000000000000000815250610279565b8183610271919061047c565b905092915050565b61030f8160405160240161028d9190610423565b6040516020818303038152906040527f41304fac000000000000000000000000000000000000000000000000000000007bffffffffffffffffffffffffffffffffffffffffffffffffffffffff19166020820180517bffffffffffffffffffffffffffffffffffffffffffffffffffffffff8381831617835250505050610312565b50565b60008151905060006a636f6e736f6c652e6c6f679050602083016000808483855afa5050505050565b60008135905061034a816107bb565b92915050565b6000806040838503121561036357600080fd5b60006103718582860161033b565b92505060206103828582860161033b565b9150509250929050565b6000806000606084860312156103a157600080fd5b60006103af8682870161033b565b93505060206103c08682870161033b565b92505060406103d18682870161033b565b9150509250925092565b60006103e682610460565b6103f0818561046b565b935061040081856020860161070c565b6104098161079d565b840191505092915050565b61041d81610702565b82525050565b6000602082019050818103600083015261043d81846103db565b905092915050565b600060208201905061045a6000830184610414565b92915050565b600081519050919050565b600082825260208201905092915050565b600061048782610702565b915061049283610702565b9250827fffffffffffffffffffffffffffffffffffffffffffffffffffffffffffffffff038211156104c7576104c661073f565b5b828201905092915050565b60006104dd82610702565b91506104e883610702565b9250826104f8576104f761076e565b5b828204905092915050565b6000808291508390505b600185111561054d578086048111156105295761052861073f565b5b60018516156105385780820291505b8081029050610546856107ae565b945061050d565b94509492505050565b600061056182610702565b915061056c83610702565b92506105997fffffffffffffffffffffffffffffffffffffffffffffffffffffffffffffffff84846105a1565b905092915050565b6000826105b1576001905061066d565b816105bf576000905061066d565b81600181146105d557600281146105df5761060e565b600191505061066d565b60ff8411156105f1576105f061073f565b5b8360020a9150848211156106085761060761073f565b5b5061066d565b5060208310610133831016604e8410600b84101617156106435782820a90508381111561063e5761063d61073f565b5b61066d565b6106508484846001610503565b925090508184048111156106675761066661073f565b5b81810290505b9392505050565b600061067f82610702565b915061068a83610702565b9250817fffffffffffffffffffffffffffffffffffffffffffffffffffffffffffffffff04831182151516156106c3576106c261073f565b5b828202905092915050565b60006106d982610702565b91506106e483610702565b9250828210156106f7576106f661073f565b5b828203905092915050565b6000819050919050565b60005b8381101561072a57808201518184015260208101905061070f565b83811115610739576000848401525b50505050565b7f4e487b7100000000000000000000000000000000000000000000000000000000600052601160045260246000fd5b7f4e487b7100000000000000000000000000000000000000000000000000000000600052601260045260246000fd5b6000601f19601f8301169050919050565b60008160011c9050919050565b6107c481610702565b81146107cf57600080fd5b5056fea2646970667358221220ad76e7c8edd3283e0cb6d5a081fb3f4f2d10dd6a63374f5f47a47704318fffe164736f6c63430008040033",
  "linkReferences": {},
  "deployedLinkReferences": {}
}